:100000000C947F000C94B1010C949C000C949C0007
:100010000C949C000C949C000C949C000C949C00F0
:100020000C949C000C94C1000C949C000C949C00BB
:100030000C949C000C949C000C949C000C949C00D0
:100040000C949C000C949C000C949C000C949C00C0
:100050000C949C000C949C000C9468060C949C00DE
:100060000C949C000C949C0005010906A101050755
:1000700019E029E715002501750195088102950110
:100080007508810395067508150025650507190093
:1000900029658100C0040309041C034E006F006F32
:1000A0000064006C00650066006900670068007409
:1000B00000650072000E034F005300550020004BF6
:1000C00000420012011001FF0000084242BEBA00C7
:1000D0000201020001090229000101008032090425
:1000E00000000203010100092101010001222D008D
:1000F0000705810308000A0705830308000A112485
:100100001FBECFEFD4E0DEBFCDBF11E0A0E0B1E075
:10011000E0E5F0E102C005900D92AA33B107D9F7EE
:1001200011E0AAE3B1E001C01D92A43BB107E1F7E1
:100130000E9430010C9426080C940000FC018FE50D
:1001400091E090938201809381018081807680325A
:10015000B1F48181813011F488E00895823041F456
:100160008EE591E0909382018093810181E0089572
:100170008A3029F4838180935E0180E0089580E0D5
:1001800008951F920F920FB60F9211242F933F9351
:100190004F935F936F937F938F939F93AF93BF938F
:1001A000EF93FF9388E68093B2000E94130780913B
:1001B0005D018823B9F480913A018F5F80933A0101
:1001C00080913A01833F28F010923A0181E08093B8
:1001D0005D0180913A0166E10E94E907992311F4DB
:1001E0000E942406FF91EF91BF91AF919F918F9153
:1001F0007F916F915F914F913F912F910F900FBE23
:100200000F901F9018952FE531E0C90160E070E074
:1002100048E050E00E94090880915301882311F4BE
:1002200091E005C08091B1018093610192E08091DD
:100230005401882341F09F5FE92FF0E08091B201E3
:10024000E15AFE4F808380915501882341F09F5FE2
:10025000E92FF0E08091B301E15AFE4F80830895C9
:100260002FE088E190E00FB6F894A89580936000A5
:100270000FBE209360008FE385B914B88FEF88B963
:1002800088E387B98AEF8BB98DE18AB989E48A95C9
:10029000F1F78AB18A7F8AB982E085BD85E08093D3
:1002A000B100809170008160809370000E94D40240
:1002B0000E9499060E9497050E944E040E94BB0668
:1002C0008091A901833018F4813020F40AC0833072
:1002D00081F407C080E060E40E94600481E060E493
:1002E00006C080E060E00E94600481E060E00E945F
:1002F0006004789480E00E944206A8950E94E5027E
:1003000080915D01882371F08091720184FF0AC0A1
:1003100010925D010E9403018FE591E068E00E9468
:100320004904EBCFA89BE9CFA89A0E947004E5CFBF
:10033000A82FB92F80E090E041E050EA609530E0CE
:1003400009C02D9182279795879510F084279527CE
:10035000305EC8F36F5FA8F30895EADF8D939D9335
:100360000895CF93CFB7CF93DF93C395489BE9F719
:10037000489B11C0489B0FC0489B0DC0489B0BC0B9
:10038000489B09C0489B07C0489B05C0489B03C0C9
:10039000489B01C083C06F93C0918001DD27C9577E
:1003A000DE4F2F9320E400C065E0489B03C02F91EF
:1003B0006F91DECF0F931F934F9345E55F9355E504
:1003C0003F933BE014E009B105702EC06A95C9F077
:1003D0003150D8F109B1057001130BC0089427956D
:1003E000299320E4555500F46A9569F701E069B155
:1003F0000BC0102F66E02695299320E4555518F37D
:10040000E2CF0FEF69B10000162F455500F04040D4
:1004100066E015700030E2F221F0000009B10570CD
:1004200003C009B10570A9F0011309C0089427950C
:1004300068F200C06A95A9F700E069B1E5CF102F16
:1004400066E0269528F20000ECCF11E01CBB0027E7
:1004500019C03B503195C31BD04011E01CBB088133
:10046000033C09F10B34F9F020917E011981110F41
:100470001213EDCF4A81441F093651F10D3211F0AC
:10048000013E29F7009385013F915F914F911F91A4
:100490000F912F916F91CCB3C0FD67CFDF91CF91BA
:1004A000CFBFCF91189520918501222369F3109138
:1004B00083011123D9F53430DAF13093830120938D
:1004C0007F01109180013BE0311B3093800130C0EF
:1004D00000918301013054F50AE54F7049F43091E1
:1004E000010134FD26C000930101C7E6D1E025C01B
:1004F000433049F03091720134FD1BC0009372010A
:10050000C3E7D1E01AC030919D0134FD12C00093C1
:100510009D01CEE9D1E011C0052710E000C00BB964
:1005200019C0052710E0221F00C01DC04AE502C007
:1005300032ED432FC4E1D0E032E01AB11560589A91
:100540000BB11AB955E020E869E420FF05270BB983
:100550002795179500C000001C3FF0F66695A8F798
:10056000A1F720FF05270BB92795179500001C3F21
:10057000C0F629913A9541F70A7F10918401110F35
:100580000BB9C651D04011F010937E0111E01CBB95
:1005900001601AB11A7F402F4A7F55E05A95F1F752
:1005A0000BB91AB94BB970CFE9E6F0E080818260EF
:1005B0008083E89A8BE48093730180939E018AE59F
:1005C0008093720180939D0108951F93CF93DF93D1
:1005D00090918301935097FDD3C020918001809129
:1005E0007F018D3209F0CAC0983009F0C7C0CCE055
:1005F000D0E0C21BD109C957DE4F83EC809367015D
:100600008AE58093010110923C019881892F8076C0
:1006100029F0CE010E949E00282FA7C02A813C818C
:10062000109270018981882381F49F71923049F47E
:10063000313839F4809172018E3119F481E0809360
:1006400070011092710122E08AC0813011F0833074
:1006500099F4222309F082C0313809F07FC081303B
:1006600011F08EE101C08AE5809372018BE48093E2
:10067000730180939E0172C0853019F42093840128
:100680006DC0863009F04FC08B81813041F483EC1E
:1006900090E0909382018093810122E140C08230FA
:1006A00041F485ED90E0909382018093810129E2ED
:1006B00036C08330F9F48A81882341F485E990E0DB
:1006C000909382018093810124E029C0813041F41C
:1006D00089E990E090938201809381012CE11FC011
:1006E0008230E1F485EB90E0909382018093810168
:1006F0002EE015C0813241F487EE90E090938201A4
:100700008093810129E00BC0823241F488E690E0B9
:1007100090938201809381012DE201C020E080E46A
:1007200080933C0122C0883021F421E086E891E0EA
:1007300018C0893019F4209386010BC08A3011F457
:1007400021E00DC08B3051F48BE4809373018093D2
:100750009E018AE58093720180939D0120E080E7ED
:1007600091E090938201809381018F81882321F40D
:100770008E81821708F4282F2093020110928301A2
:100780008091010184FF46C0809102018F3F09F4EE
:1007900041C0182F893008F018E0811B80930201B6
:1007A0008091670198E8892780936701112321F1DF
:1007B000209181013091820180913C0186FF0AC025
:1007C000912FF901A8E6B1E084918D933196915073
:1007D000D9F708C0912FD901E8E6F1E08D91819316
:1007E0009150E1F7C90101961150810F911D1F5FD2
:1007F000909382018093810188E691E0612F0E94AD
:10080000AD01612F6C5F6C3019F08FEF80930201A6
:100810006093010194E189B1857059F49150D9F741
:100820001092840110927E018AE580937201809378
:100830009D01DF91CF911F9108951F93CF93DF9377
:10084000DC01162FEA01809172018E31C9F0888196
:1008500084FF05C0898198E88927898302C08AE5D9
:100860008883AE014E5F5F4FFA01212F8D918193F6
:100870002150E1F7CA01612F0E94AD011C5F18836E
:10088000DF91CF911F9108954DE951E00E941D0421
:10089000089542E751E00E941D04089510923D0121
:1008A0001092430185E08150E82FF0E0DF01A25C67
:1008B000BE4F1C92EC5BFE4F10828823A1F7089577
:1008C000EEE3F1E0E80FF11D60830895E82FF0E01A
:1008D000DF01A25CBE4F6C93EC5BFE4F608308951A
:1008E000CF93DF93C3E0D1E0ADE0B1E040E050E072
:1008F00061E070E090913D019923A1F0FA01EC5B79
:10090000FE4F8081891770F0E881F981CB010C904E
:1009100002C0880F991F0A94E2F78095208128234E
:1009200020830CC0E881F9819B010C9002C0220F4A
:10093000331F0A94E2F78081822B80834F5F5F4FE1
:100940002296119645305105A9F6809143018F5F9B
:100950008093430180914301813508F11092430156
:1009600020E030E0F901EC5BFE4F9081D901A25C00
:10097000BE4F8C91981771F090818C91981718F454
:1009800080818F5F06C090818C91891718F48081D7
:10099000815080832F5F3F4F2530310519F78091BB
:1009A0003D018F5F80933D01813410F010923D0135
:1009B000DF91CF910895AF92BF92CF92DF92EF92E5
:1009C000FF920F931F93CF93DF938D3008F0A4C055
:1009D00090E0FC01EE0FFF1FE80FF91FEE5EFE4FE7
:1009E000808190E0218130E0E280FF2406E0609F7A
:1009F00080011124F901E80FF91FEE0DFF1DAC0174
:100A0000049FC001059F900D149F900D1124BF01FC
:100A10000E94F5075B01029FC001039F900D129F8A
:100A2000900D1124BF010E94F5076B010E9DC001BE
:100A30000F9D900D1E9D900D1124BF010E94F50782
:100A4000EB015FEFA516B104E9F0E0F0EFEFF0E0A5
:100A5000CE9EC001CF9E900DDE9E900D1124B5015B
:100A60000E94F5076B01CE9FC001CF9F900DDE9FC6
:100A7000900D1124B5010E94F507EB019FEFA92EFF
:100A8000B12C3EC08FEFC816D104E9F0E0F0EFEFD3
:100A9000F0E0AE9EC001AF9E900DBE9E900D112461
:100AA000B6010E94F5075B01CE9FC001CF9F900D5C
:100AB000DE9F900D1124B6010E94F507EB018FEF28
:100AC000C82ED12C1DC06F3F7105D1F0C8F0EFEFDB
:100AD000F0E0AE9EC001AF9E900DBE9E900D112421
:100AE0000E94F5075B01CE9EC001CF9E900DDE9E59
:100AF000900D1124BE010E94F5076B01CFEFD0E0ED
:100B000083E06A2D0E94600482E06C2D0E946004E4
:100B100084E06C2F0E946004DF91CF911F910F91B0
:100B2000FF90EF90DF90CF90BF90AF900895089521
:100B300080914E018F5F80934E0181E08093500140
:100B400008951F9390914D01E0914C01F0E0E75B17
:100B5000FE4F8081981B90934D0190914D018091A3
:100B60004E01890F80934D01E0914C01F0E080919E
:100B70004E01E75BFE4F808310924E0180914C0145
:100B80008F5F80934C0180914C01833010F0109264
:100B90004C0180914D01833010F410E005C080912C
:100BA0004D01863018F411E06AE035C080914D01A6
:100BB000893010F412E0F8CF80914D018B3010F4A1
:100BC00013E0F2CF80914D018D3010F414E0ECCFA2
:100BD00080914D018F3018F415E06FE01CC08091BA
:100BE0004D01813118F416E064E115C080914D018A
:100BF000833118F417E06AE10EC080914D01853110
:100C000010F418E007C080914D01873110F01AE010
:100C100001C019E060E2812F8E5F0E94DB04112386
:100C200079F480914F018F5F80934F0180914F0144
:100C3000863240F010924F0180E00E94420602C0CE
:100C400010924F011F910895809151018F5F809301
:100C5000510180915001813019F0823091F409C026
:100C600080915101823168F0109251010E94A105DA
:100C70000895809151018B3520F01092510110920E
:100C8000500108958093500110925101882311F072
:100C9000823029F48091AA0160E20E94DB04089569
:100CA000FB019093B0018093AF0180818F5F8083BF
:100CB000481708F4108280818093AE010E94BB0621
:100CC00082E00E944206FB9A81E0809352010895DF
:100CD0001F920F920FB60F9211242F933F934F93B1
:100CE0005F936F937F938F939F93AF93BF93EF9394
:100CF000FF9380915201882359F08091AF01909128
:100D0000B0016091AE010E94180810925201FB9848
:100D1000FF91EF91BF91AF919F918F917F916F91D3
:100D20005F914F913F912F910F900FBE0F901F90A9
:100D3000189589B190E0809590958076907025E027
:100D4000959587952A95E1F78093A901F999FECFAA
:100D500081E090E00E9410088093AA0182E090E078
:100D60000E9410088093AB0183E090E00E9410087D
:100D70008093AC0108958091AB018330C1F0843041
:100D800028F4813051F0823031F50CC08530C9F043
:100D9000853090F08630F9F419C08DE18093B1016F
:100DA00086E01DC084E08093B10186E118C084E034
:100DB0008093B10187E013C08BE48093B1018EE48E
:100DC0000EC082E58093B10181E509C080E5809382
:100DD000B1018FE404C08DE18093B1018BE1809378
:100DE000B2018091AC01833091F0843028F48130DD
:100DF00051F08230A1F409C0853069F0853048F0A7
:100E0000863069F40AC08AE30BC08BE309C081E431
:100E100007C085E405C08CE203C088E201C089E216
:100E20008093B3010895CF92DF92EF92FF920F93D8
:100E30001F93CF93DF9386B1C0E0D0E031E0C32EA3
:100E4000D12CE82EFF24E094F09401E01C2FFE0149
:100E5000ED5AFE4F8081882321F0813009F0ABC02C
:100E600029C096010C2E02C0220F331F0A94E2F70C
:100E7000C9018E219F218217930709F09CC08081B0
:100E80008F5F808300935D010E949805C093560197
:100E9000C23009F490C08091A901823019F48C2FDE
:100EA00060E005C0882309F086C08C2F60E40E94B2
:100EB000660481C096010C2E02C0220F331F0A94D3
:100EC000E2F7C9018E219F2182179307E9F0C23012
:100ED00069F08091A901823019F48C2F60E404C07C
:100EE000882321F48C2F60E00E946004FE01ED5AFB
:100EF000FE4F108200935D01FE01EE0FFF1FE95AC5
:100F0000FE4F1182108257C0FE01EE0FFF1FE95AFB
:100F1000FE4F808191818855924028F48081918193
:100F2000019691838083FE01EE0FFF1FE95AFE4F69
:100F300080819181855F9140F0F1118210821230A1
:100F400089F4809153018823B1F180915401882361
:100F500091F180915601823071F583E090E06CEA66
:100F600071E012C0112391F480915401882319F18A
:100F7000809155018823F9F0809156018823D9F496
:100F800082E090E06BEA71E046E013C0113099F422
:100F900080915301882379F080915501882359F07D
:100FA00080915601813039F481E090E06AEA71E085
:100FB0004CE00E9450062196C330D10509F046CF7F
:100FC000DF91CF911F910F91FF90EF90DF90CF9025
:100FD0000895991B79E004C0991F961708F0961B95
:100FE000881F7A95C9F780950895AA1BBB1B51E10C
:100FF00007C0AA1FBB1FA617B70710F0A61BB70B89
:10100000881F991F5A95A9F780959095BC01CD012D
:101010000895DC0101C06D9341505040E0F7089500
:10102000F999FECF92BD81BDF89A992780B50895B0
:10103000262FF999FECF1FBA92BD81BD20BD0FB6F4
:10104000F894FA9AF99A0FBE01960895F894FFCF92
:10105000015AFF2B002B002800280028000403035E
:101060000405000000FFFFFF324BBE324BBE0A0AF0
:10107000BE50501E7F3200FF80FFFF0000FF28643B
:0A1080008D14BBFFE6FFFFC900005E
:00000001FF
